:030000000200B843
:0C00B800787FE4F6D8FD7581200200FF7F
:10000E00010E00C104011100010D0001130A0108C7
:01001E0000E1
:1001DA00120144D2B243E11043E1103004FAC204DE
:1001EA0030031DE51DC3940450117418251DF8E64B
:1001FA00F5993099FDC299051D8005E4F51DC203E4
:10020A000511E511B40A03E4F511E51124F76002BA
:07021A0080C612022180C121
:03000B000201905F
:10019000C0E0C0F0C083C082C0D075D000C000C035
:0D01A00001C002C003C004C005C006C007B6
:1001AD000508E508B41005750800D20412023812CE
:0201BD0000261A
:1001BF00D007D006D005D004D003D002D001D00094
:0B01CF00D0D0D082D083D0F0D0E0323E
:100221000509050AE50AB40503E4F50AE509B41967
:0602310005E4F509B20529
:0102370022A4
:0300230002024C8A
:10024C00C0E0C0D0C298E599B47F0375C760D0D028
:03025C00D0E032BD
:10023800E513600DE510600BD51008851210B28427
:0402480022D2842218
:10014400E4F594F593F592F591F596F59575B20A63
:1001540075B108F5B4F5B3F5CAF5C9F5CCF5CB43DB
:100164008E805389F0758A96758CFAD28CD2A975D3
:100174009850438E01438E0475D7E075D6FE438EA6
:0C01840010D2ACD2AF75E10243E12022A2
:03001F00011704C2
:1000260030B20FE51CC394FF5002051CE4F514D250
:100036000122E514C394FF50020514300245300135
:10004600420516E51525E0F515E51CD3940A400B87
:10005600E51C941C500543150180035315FEE51657
:100066005407700CE516131313541F2417F8A6151E
:10007600E51775F008A4B5160AE4B5F006C202D273
:1000860003C200E51CD3941C4013E51C9440500D9C
:1000960030010A200207E4F516D202C200E51CD39D
:1000A600940C4006E51C941C4002C200E4F51CC2F8
:0200B600012225
:1000C4000201DAE493A3F8E493A34003F68001F277
:1000D40008DFF48029E493A3F85407240CC8C3333D
:1000E400C4540F4420C8834004F456800146F6DF0C
:1000F400E4800B010204081020408090000EE47E8E
:10010400019360BCA3FF543F30E509541FFEE49300
:10011400A360010ECF54C025E060A840B8E493A3C7
:10012400FAE493A3F8E493A3C8C582C8CAC583CAF2
:10013400F0A3C8C582C8CAC583CADFE9DEE780BEAA
:0100220000DD
:00000001FF
