:030000000218499A
:0C184900787FE4F6D8FD7581BC02189091
:1018D500C1A7015400C122015F000247003C02522A
:1018E500003C02410064023F1F41023203E8025CF2
:1018F5000FA0014C01012A00013B03012D19022B08
:0519050000780126003E
:1011A000AE45AF467C037DE8120EA774112FF58281
:1011B000741C3EF583E493F51BAE45AF467C037D7E
:1011C000E8120EA77E007F64CFCDCFCECCCE120E1C
:1011D000A774112FF582741C3EF583E493F51CAEC1
:1011E00045AF467C007D64120EA77F0A7E00CFCDFE
:1011F000CFCECCCE120EA774112FF582741C3EF503
:1012000083E49322F51DAE4AAF4B7C007D0A120E9B
:10121000A774112DF582741C3CF583E42208F608AE
:10122000F608F608F608F608F608F608F622120B95
:10123000C3E4FBFA797A7844120CCC79C87842E49A
:10124000FBFA020CCCAC30AD31E4120DDB7B00229A
:10125000AC32AD33E4020DDBF51BAE47AF487C0387
:101260007DE8120EA77E007F6422AC30AD31E4121F
:101270000DDB797A7844E4FBFA020BC37DC87C422B
:10128000E4FFFEAB68AA67A966A865020D69D202F1
:10129000D20675570A757119E4F56CF56BF56AF5A8
:1012A00069D205F550F55122120AD27B007A5079A5
:1012B000C3784722120AD27B007A40791C784622F2
:1012C000AC5CAD5DE4020DDB120BC3A804A905AA5A
:1012D00006AB07228F688E678D668C6522AF63AE82
:1012E00062AD61AC60E4020DD674F62533F533745B
:1012F000FF3532F5322274F6255DF55D74FF355CFD
:10130000F55C22120AD2E4FBFA79C8784222120A6A
:10131000D2E4FBFA797A7844227A24797478490203
:101320000BC3AC2DE4020DE0E726082608260826AC
:10133000789D26F622AF68AE67AD66AC6522120EC8
:10134000148E4A8F4B22D3E53394F1E53294032275
:10135000D3E55D94F1E55C940322F56CF56BF56AD9
:10136000F56922E4FBFA7920784122AB6CAA6BA9DB
:101370006AA869020F0AC3E546940FE5459427223F
:10138000C3E548949FE547940522C3E5339410E5EF
:1013900032942722C3E55D940FE55C942722C3E5D0
:1013A0005D9410E55C942722C3E54294E8E54194FE
:0213B000032216
:10172C0012199A120006121C6375A0FF43E11043B4
:10173C00E110121BC31219F01200261217BB121B58
:10174C006A121BA83022E8C222055FE55FB40A03C7
:10175C00E4F55FE55FB40A0050D590176DF82828C2
:10176C007302178B02179B02179D0217A202173BDD
:10177C000217A70217AC02173B0217B10217B612D9
:10178C001A3CE539650F6002D228850F3980A0809C
:10179C000F121C87809912061780941215E3808F04
:0F17AC00120F1B808A1217BB80851214EB8080EE
:03000B000219389F
:10193800C0E0C0F0C083C082C0D075D000C000C075
:0D19480001C002C003C004C005C006C007F6
:10195500C3E5389410E5379427500A0538E5387003
:101965000A0537800685373F8538400526E526B4C4
:0A1975001005752600D2221213B2ED
:10197F00D007D006D005D004D003D002D001D000BC
:0B198F00D0D0D082D083D0F0D0E03266
:0300230002168E34
:10168E00C0E0C0D075D000C000C004C005C006C008
:01169E000744
:10169F00E4FDFC309854202614AE99C298EEF470F5
:1016AF006D0527E52764027065D2268061AE99C269
:1016BF00987F00EFC39E502920980E0DBD00010C9E
:1016CF00D3ED94C8EC940040EFC3ED94C8EC9400B4
:1016DF00500F747C2FF8A699C2987C007D000F8064
:1016EF00D2C29CC226752700802420982130991ED3
:1016FF00C2997888E6FE7F00EFC39E500F74862F45
:0E170F00F8E6F5993099FDC2990F80ECD29C56
:0F171D00D007D006D005D004D000D0D0D0E03215
:03000300021C8656
:011C8600322B
:100F1B00C229E4F51BF51CF51DF51EF51FE5721432
:100F2B00600D1470030211892402600302119DE508
:100F3B0064B4090040030210FE900F4BF82828738D
:100F4B00020F66020F98020FA7020FB6020FDC0208
:100F5B00100802104D02108F0210BE751B54AF56B5
:100F6B007E007C037DE8120EA77F641211ECF51C4A
:100F7B00E55675F06484E5F075F00A84901C1193C6
:100F8B00F51DE55675F00A84E5F00210B830000542
:100F9B00901C138003901C12E40210B81211A0F5E0
:100FAB001DAE45AF4612120A0210B8AE47AF487CD1
:100FBB00037DE81211F41212581211EEF51CAE4714
:100FCB00AF481211E3F51DAE47AF4812120A0210DB
:100FDB00B8AE30AF317C037DE81211F4F51BAE30A7
:100FEB00AF3112125E1211EEF51CAE30AF31121191
:100FFB00E3F51DAE30AF3112120A0210B8AE32AFAC
:10100B00337C037DE81211F4F51BAE32AF331212B1
:10101B005E1211EEF51CAE32AF331211E3F51DAEBD
:10102B0032AF3312120A93F51EE54C24FE600D14F9
:10103B00600D240260030210FE0210F10210F60292
:10104B0010FBAE5CAF5D7C037DE81211F4F51BAEBB
:10105B005CAF5D12125E1211EEF51CAE5CAF5D1251
:10106B0011E3F51DAE5CAF5D12120A93F51EE52A76
:10107B0024FE600A14600A240270780210F1021038
:10108B00F60210FBAE41AF427C037DE81211F4F582
:10109B001BAE41AF4212125E1211EEF51CAE41AF08
:1010AB00421211E3F51DAE41AF4212120A93F51E27
:1010BB000210FEAE4AAF4B7C037DE81211F4F51B18
:1010CB00AE4AAF4B12125E1211EEF51CAE4AAF4B8D
:1010DB001211E312120493F51EE55E24FE600C144C
:1010EB00600E2402700D431B808008431C8080031C
:1010FB00431D80E53B707420000F751B40751C4031
:10110B00751D40751E4002114BE5484547700B128B
:10111B0011A0F51DAE45AF468020AE47AF487C030E
:10112B007DE81211F41212581211EEF51CAE47AFF6
:10113B00481211E3F51DAE47AF4812120A93F51E84
:10114B00300530AE4AAF4B7C037DE81211F4F51B32
:10115B00AE4AAF4B12125E1211EEF51CAE4AAF4BFC
:10116B001211E312120493F51E8008E564901C2102
:10117B0093F51F30011C302419E4F51F8014202433
:10118B0011E4F51B751C79E534901C1193F51DE4E6
:05119B00F51ED229221F
:1014EB0005280529D299E529B40503E4F529E57109
:1014FB006007D57104D203D207302875C228053E88
:10150B00E53E643C706BF53EE52C452B60142005E5
:10151B0011E52C152C7002152BE52C452B700312A5
:10152B00135AE5576006D55703752F0AE52F60064A
:10153B00D52F0375570A300038E5484547601EE53F
:10154B0048154870021547E54845477024E5464560
:10155B0045601EE546154670121545800EE546455D
:10156B0045600EE5461546700215457547057548ED
:10157B009FE52864197032F528B22430242BC3E57B
:10158B005194F4E550940150080551E55170020552
:10159B0050E54F6005D54F02C201E53B6002153B9C
:1015AB00E5496005D54902D22530002BE546454576
:1015BB007025E5484547701F20051CD20275570A58
:1015CB00D206757119121299854D45854E46855275
:0715DB004785534812135A23
:0115E20022E6
:10061700E52A1470030206F51470030207BF14706D
:100627000302088524036003020A201212DDC004B6
:10063700C005C006C007121322D003D002D001D0D4
:1006470000120BC3C004C005C006C0071212C0D0F9
:1006570003D002D001D00012122E1212D4E54C148E
:10066700602914604514606424036003020A2012A1
:10067700126AC004C005C006C007121250D003D0CA
:1006870002D001D0001213030208EE121245121312
:1006970019C004C005C006C007121250D003D0020B
:1006A700D001D0001213030209391212451212ADFC
:1006B700120BC3C004C005C006C007121250D003F6
:1006C700D002D001D00012130302098D1212451275
:1006D70012B9120BC3C004C005C006C007121250DE
:1006E700D003D002D001D0001213030209E0121286
:1006F700DDC004C005C006C007121322D003D00214
:10070700D001D000120BC3C004C005C006C0071239
:1007170012C0D003D002D001D00012122E797A78FD
:100727004412123F1212D4E54C1460291460451488
:10073700606424036003020A2012126AC004C00521
:10074700C006C007121250D003D002D001D0001249
:1007570012A80208EE121245121319C004C005C0F0
:1007670006C007121250D003D002D001D0001212D7
:10077700A80209391212451212AD120BC3C004C0E8
:1007870005C006C007121250D003D002D001D00016
:100797001212A802098D1212451212B9120BC3C008
:1007A70004C005C006C007121250D003D002D00102
:1007B700D0001212A80209E01212DDC004C005C061
:1007C70006C007121322D003D002D001D000120BAB
:1007D700C3C004C005C006C0071212C0D003D002B0
:1007E700D001D00012122E12123B1212D4E54C1473
:1007F700602914604514606424036003020A201210
:10080700126AC004C005C006C007121250D003D038
:1008170002D001D0001212B40208EE1212451213D0
:1008270019C004C005C006C007121250D003D00279
:10083700D001D0001212B40209391212451212ADBA
:10084700120BC3C004C005C006C007121250D00364
:10085700D002D001D0001212B402098D1212451233
:1008670012B9120BC3C004C005C006C0071212504C
:10087700D003D002D001D0001212B40209E0121244
:10088700DDC004C005C006C007121322D003D00282
:10089700D001D000120BC3C004C005C006C00712A8
:1008A70012C0D003D002D001D00012122E1213634F
:1008B700120CCC1212D4E54C14605B1470030209BD
:1008C7006E1470030209C124036003020A20121286
:1008D7006AC004C005C006C007121250D003D00278
:1008E700D001D00012130E120BC3C004C005C006FE
:1008F700C0071212C0C004C005C006C007121322E9
:10090700D003D002D001D0001212C8D007D006D031
:1009170005D004020A12121245121319C004C005A9
:10092700C006C007121250D003D002D001D0001267
:10093700130E120BC3C004C005C006C0071212C0B5
:10094700C004C005C006C007121322D003D002D0CE
:1009570001D0001212C8D007D006D005D004120C5F
:10096700CC121311020A121212451212AD120BC346
:10097700C004C005C006C007121250D003D002D071
:1009870001D00012130E120BC3C004C005C006C06D
:10099700071212C0C004C005C006C007121322D038
:1009A70003D002D001D0001212C8D007D006D0055C
:1009B700D004120CCC12130680511212451212B930
:1009C700120BC3C004C005C006C007121250D003E3
:1009D700D002D001D00012130E120BC3C004C00501
:1009E700C006C0071212C0C004C005C006C0071267
:1009F7001322D003D002D001D0001212C8D007D0E2
:100A070006D005D004120CCC121363120CCC120EB4
:100A1700148F5B8E5A8D598C58E4F55EFFFE7D204E
:100A27007C4112128350121213351212721212D411
:100A370012133E755E01020AA512127C501E7D201C
:100A47007C41121280401512133579C87842121270
:100A5700761212D412133E755E028042E4FFFE7DC9
:100A67007A7C44121283501912127C4014121335E7
:100A7700121363120BC31212D412133E755E038056
:100A87001D7F007E3C7D1C7C46121283600250084D
:100A970012133512133E8006754A27754B0FAF5B4D
:100AA700AE5AAD59AC58C312136B401730020675D6
:100AB7002B00752C78C202C206C203C207C205E426
:040AC70012135A228A
:1019F000788676FF0876FF087618E408F6087607FA
:101A000008760212121D08F612121D7986E77887F1
:101A100026082608260826799DF7798B788C1213DC
:101A200028799078911213287995E77896121329DE
:0C1A3000799AE7789B2608260826F62203
:101BC300787DE6FF6013EF540F24F960028003125F
:0A1BD30019F0D299D22A121C402208
:101C4000E4FF302A04747C800274862FF8E4F60FD7
:031C5000BF06EFDD
:011C5300226E
:10002600201B03020616C21B754903AF75753B03F9
:10003600EF24FE700302027824FD70030205B52446
:1000460004600302061620010302024FE564B408A9
:10005600004003020589900063F828287302007B9C
:1000660002008A0200AB0200EB02012B02014402ED
:1000760001A7020213E556C394FF40030205890552
:1000860056020589D200E4F545F546F54775483C24
:10009600F55275533CD202D20675570A757119127C
:1000A6001299020589301C27C3E5469405E5459457
:1000B60027500D740A2546F546E43545F545801C5E
:1000C60012137650170546E54670110545800D1248
:1000D600137650080546E5467002054585454D856B
:1000E600464E020589301C27C3E5489495E547949A
:1000F60005500D740A2548F548E43547F547801C38
:1001060012138050170548E54870110547800D12F7
:10011600138050080548E548700205478547528513
:100126004853020589C3E5319464E53094004003E1
:100136000205890531E53170020530020589301C5A
:100146000D740A2533F533E43532F532800805336C
:10015600E53370020532E54C24FE6017146028244E
:1001660002600302058912138A5003020589754C41
:1001760002800B12138A5003020589754C037532EF
:10018600037533E8020589C3E533940FE5329427F6
:100196005003020589754C0375322775330F020526
:1001A60089301C0D740A255DF55DE4355CF55C80CF
:1001B60008055DE55D7002055CE52A1460211460A2
:1001C6002B1460352403600302058912139450032F
:1001D600020589E4F52A755C27755D0F020589120B
:1001E600139E5003020589752A02801812139E5029
:1001F60003020589752A03800B1213945003020526
:1002060089E4F52A755C03755DE8020589301C29C9
:10021600C3E54294DEE5419403500E740A2542F587
:1002260042E43541F5410205891213A850180542EA
:10023600E542701205410205891213A850080542CD
:10024600E542700205410205897F02121BDD201E70
:1002560008D219202103020616301E0920001012AA
:10026600128E0205B00564E564B40903E4F5640280
:1002760005B020010302058DE564B40800400302C1
:10028600058990028FF82828730202A70202B60297
:1002960002C302030602034902035D020458020573
:1002A6004FE556D394015003020589155602058978
:1002B600C200C202C206C203C207020589D3E546CE
:1002C600940AE54594004021301C0E74F62546F547
:1002D6004674FF3545F545801EE54645456018E5FB
:1002E60046154670121545800EE54645456008E5FB
:1002F6004615467002154585454D85464E020589CB
:10030600D3E548940AE54794004021301C0E74F664
:100316002548F54874FF3547F547801EE5484547AB
:100326006018E548154870121547800EE5484547A0
:100336006008E548154870021547854752854853B9
:10034600020589E53145307003020589E53115312D
:1003560070021530020589E54C14604414607A1465
:10036600700302041E24036003020589121346402B
:1003760012301C051212E98012E5331533700C1584
:10038600328008E533153370021532E53364E770C1
:1003960004E53264036003020589754C0302044FC9
:1003A600D3E533940AE53294004012301C0512124C
:1003B600E98012E5331533700C15328008E53315E4
:1003C6003370021532E53345326003020589754CF8
:1003D60001F5327533010205891213464018301CA7
:1003E600051212E9801EE53345326018E5331533F0
:1003F60070121532800EE53345326008E533153349
:1004060070021532E53364E77004E5326403600375
:10041600020589754C0180311213464012301C05C5
:100426001212E98012E5331533700C15328008E597
:1004360033153370021532E53364E77004E5326430
:10044600036003020589754C0275322775330F0266
:100456000589E52A1460471470030204E914700341
:100466000205192403600302058912135040123055
:100476001C051212F68012E55D155D700C155C8088
:1004860008E55D155D7002155CE55D64E77004E5E1
:100496005C64036003020589752A03020547D3E5F8
:1004A6005D940AE55C94004018301C051212F68033
:1004B6001EE55D455C6018E55D155D7012155C8096
:1004C6000EE55D455C6008E55D155D7002155CE551
:1004D6005D455C6003020589752A01F55C755D0161
:1004E6000205891213504012301C051212F68012B2
:1004F600E55D155D700C155C8008E55D155D7002A7
:10050600155CE55D64E77004E55C64037075752A47
:1005160001802E1213504012301C051212F6801262
:10052600E55D155D700C155C8008E55D155D700276
:10053600155CE55D64E77004E55C64037045752A47
:1005460002755C27755D0F803AD3E542940AE54152
:1005560094004021301C0E74F62542F54274FF3596
:1005660041F541801EE54245416018E5421542705D
:10057600021541800EE54245416008E5421542708C
:10058600021541754F0A227F02121BDD201E05D27D
:100596001930217C301E0820001012128E800BE5C7
:1005A60064700575640880021564C21EC221227F2C
:1005B60002121BDD301E59C21E754F0AE564B409CE
:1005C60000504D9005D0F82828730205EB0205EE81
:1005D6000205F10205F40205F70205FA0205FD021D
:1005E6000600020603B20122B20122B20122B201C2
:1005F60022B20122B20122B20122B20122B201E4E8
:10060600F568F567F566F565F563F562F561F5601C
:0106160022C1
:1017BB00C3E551942CE55094014007300506D2083F
:1017CB008002C208200510E47F02FEFDFCD3121339
:1017DB006B4006D2098002C209AC3FAD40E4120D4A
:1017EB00DBE4FBFA79FA78421212C8E4FFFE7D8043
:1017FB007C3F120CCC7B001213198F708E6F8D6E89
:10180B008C6DAC41AD42E4120DDBAB70AA6FA96ECF
:10181B00A86D120D6960064004D20A8002C20A301C
:10182B000803753401300903753402300A0375342B
:0E183B0003E5346006757202D20422C2042254
:101B6A00E53424FE600C14600E2402701220080F63
:101B7A00800820090A8003200A05E4F572F5342258
:101BA800300204D2B38002C2B3300304D2B180023F
:0B1BB800C2B1300403D2B022C2B02240
:10199A00E4F594F593F592F591F596F595F5B2F58A
:1019AA00B1F5B4F5B3F5CAF5C9F5CCF5CB43960153
:1019BA005395FE438E805389F0758ACD758CEFD28C
:1019CA008CD2A9759850438E01438E0475D7A075A1
:1019DA00D6FC438E10D2ACD2B2D288D2A8D2AF757E
:0619EA00E10243E12022AE
:011C8700223A
:10190A00017900017B0001740002760000017A006F
:10191A00017300017500017800C11CC11FC11AC101
:03192A001EC118C3
:1015E300E57960021579E57460021574E57745764F
:1015F300600AE5771577700C15768008C218C21A51
:10160300C21CC21AE5797006F573C218C21C857A2A
:1016130073E57365757030E5736029D21DE5774511
:1016230076701D30180DD21EC218C219857375D27B
:101633001B800DD21C857375D21B757600757701DF
:1016430075793222C21822C218E573602AD21DC2EC
:1016530021C219301A10E5746009D21F857375D23F
:101663001B800AC21F22857375D21BC21C75793277
:1016730075760075770A2230190B301D0BD221C203
:0B16830019D21B8003857375C21D2265
:091C7700201A05D21A75746422CA
:101BDD00201816D2187E007C037DE8120E957C002D
:0A1BED007D14120EA78E768F77226A
:101C11003F065B4F666D7D077F6F77395E79710097
:091C2100000120100802800440BB
:1013B2007592007591FF53963B4395C453CACF4330
:1013C200C930D2A6D291D292D294D2A2D2A1C2A72D
:1013D200C293C296C2CCC297C290C295C2CD2029F6
:1013E200030214EA0519E519B4080DE4F519051A02
:1013F200E51AB40603E4F51AE51A1460121460142F
:1014020014601614601824047019851B2280178535
:101412001C228012851D22800D851E228008851FB8
:10142200228003E4F522E519B408005075901436C1
:10143200F828287302144E02145902146402146F1D
:1014420002147A02148502149002149B301004D202
:10145200A7804FC2A7804B301104D2938044C2931D
:101462008040301204D2968039C2968035301304FF
:10147200D2CC802EC2CC802A301404D2978023C2D0
:1014820097801F301504D2908018C29080143016B5
:1014920004D295800DC2958009301704D2CD800206
:1014A200C2CDE51A14601414601514601614601786
:1014B2001460182405701FC2A6801BC2918017C237
:1014C200928013C294800FC2A2800BC2A1D290D28A
:1014D200A7D293121C2A7591007592FF53953B4334
:0814E20096C453C9CF43CA3080
:0114EA0022DF
:101C2A00E4F57A209303757A0120A703757A0220D6
:061C3A009003757A0522FB
:10000E00E4FDFCEFFBC3ED9BEC940050070DBD002F
:04001E00010C80EF62
:0100220022BB
:051C8000121C85D2B426
:011C8500223C
:0A1C6300D2B4121C85D2B5021C8514
:0F1C5400D2B5121C80C2B5121C85C2B4021C8509
:0A1C6D00C2B5121C80D2B5021C851E
:101B8A00E4FEEF25E0FFC2B4121C8592B5121C8058
:0E1B9A000EBE08EEC2B4121C85D2B5021C8528
:101AFB00E4FEC2B4121C85D2B5FD121C8030B504B5
:101B0B007F018002E4FFEE25E04FFEC2B40DBD085D
:061B1B00E9121C85AF0673
:011B210022A1
:0B1B4700121B8A121B52AF05121B8AF2
:101B5200E4FFD2B4121C8530B509EFC394FF5003E1
:081B62000F80F4C2B4021C85DF
:021B2200AD070D
:101B2400121C547FA0121B47121C547FA1121B8A43
:101B3400121B52121AFBAE07121C6D7F0A12000E02
:021B4400AF06EA
:011B4600227C
:101BF700AC07121C547FA0121B8A121B52AF04128F
:0A1C07001B47121C6D7F3202000E15
:0A192D000809140A06050C3700062D
:101AC300D2A55307FEE4FEEF30E004D2A48002C2A5
:101AD300A4D2A3C2A3EFC313FF0EBE08EAE4FEED34
:101AE30030E004D2A48002C2A4D2A3C2A3EDC313E4
:071AF300FD0EBE08EAC2A5CA
:011AFA0022C9
:101A8800D2A5430701E4FDEF30E004D2A48002C2EE
:101A9800A4D2A3C2A3EFC313FF0DBD08EAE4FDEE71
:101AA800C313FE30A405430680800353067FD2A3E8
:0A1AB800C2A30DBD08E9C2A5AF06E8
:011AC2002201
:101A3C000508E508B40403E4F5087E007F00E470B3
:101A4C003AEF24FD5004600C80317F80121A88EF2D
:101A5C00547FF517E4FF74112FF8E6FEC4540FFD04
:101A6C00EE540FFE74092FF8A606ED75F00AA4FECD
:0B1A7C0074092FF8EE26F60FBF08DB00
:011A8700223C
:05000600C2A5C2A32207
:100ACB00020E80E86480F8E933E83360110460F0CB
:100ADB00ED33EC337009E8FCE9FDEAFEEBFF220491
:100AEB0060DED3EB9FEA9EE99DE8C2E78CF0C2F78C
:100AFB0095F0400CE8CCF8E9CDF9EACEFAEBCFFB58
:100B0B00120E4B85D0F05804700320D5B3E8047057
:100B1B00075002B2D5020E8A92D5EC0460F7E4CCF2
:100B2B00C0E0C398F8603B94186008400DD0E0FB20
:100B3B00020E62E4FBFAC9FC8028E830E406E4C943
:100B4B00FBE4CAFCE830E305E4C9CACBFCE8540774
:100B5B006010F8C3E913F9EA13FAEB13FBEC13FC7F
:100B6B00D8F130F52FC3E49CFCEF9BFFEE9AFEED22
:100B7B0099FDD0E0FBEF4E4D4C701222DB03020EC1
:100B8B0087EC2CFCEF33FFEE33FEED33FDED30E75E
:100B9B00EB020E62EF2BFFEE3AFEED39FDD0E0FBE0
:100BAB0050130BBB0003020E8AED13FDEE13FEEF89
:080BBB0013FFEC13FC020E62B3
:100BC300EC4D6011E8497017ED33EC3304600DE42C
:100BD300FCFFFEFD22E933E8330470F8020E8012B5
:100BE3000E4B58046009E4CC2481500628500902B6
:100BF3000E8A284003020E87C0E0EB4A7044B98096
:100C030006D0E0FB020E76EF4E701CBD8008EBFFB2
:100C1300EAFEE9FD80EBE98DF0A4FEE5F0020CAC01
:100C2300E9CDF9EAFEEBFFEF89F0A4FCE5F0CE890C
:100C3300F0A42EFFE435F0CD89F0A42DFEE435F0C9
:100C43008067EF4E7005BD80D780C3EF8BF0A4ACF7
:100C5300F0EE8BF0A42CFCE435F0F8EF8AF0A42C32
:100C6300E5F038FCE433CB8DF0A42CFCE5F03BF845
:100C7300EE8AF0A42CFCE5F038F8E433CF89F0A435
:100C83002CFCE5F038CF3400CE89F0A42FFFE5F03B
:100C93003EFEE433C98DF0A42EFEE5F039CD8AF093
:100CA300A42FFFE5F03EFEE43DFD33D0E0FB50070B
:100CB3000BBB000F020E8AEC2CFCEF33FFEE33FE6E
:060CC300ED33FD020E629C
:100CC900020E8AEC5D046005E859047003020E8087
:100CD900120E4B580460F6EC4860F2EC7004FDFE0D
:100CE900FF22C860DB2481C85009C39860025006FE
:100CF900020E879850CAF582E9294B4A7005AB82E2
:100D0900020E7675F0007C1A7880C3EF9BEE9AED9F
:100D190099400DC3EF9BFFEE9AFEED99FDE842F075
:100D2900DC23ACF0D0E0FFD0E0FED0E0FDAB8220C8
:100D3900E7101BEB60BAEC2CFCEF33FFEE33FEED52
:100D490033FD020E62E803F830E705C0F075F000E4
:100D5900EF2FFFEE33FEED33FD40B830E7C280AA36
:100D690074F8CC6480CCC86480C8F582046043C33D
:100D7900EB9FF5F0EA9E42F0E99D42F0E89C45F0D0
:100D890060305018E5825FFFE582F42B5582FB50F5
:100D9900210ABA001D09B90019088016E5825BFB12
:100DA900E582F42F5582FF50090EBE00050DBD00E6
:100DB900010CC3EB9FF5F0EA9E42F0E99D42F0E891
:0D0DC9009C45F06007CC4820E701B3EC2208
:100DD60075F020800E75F010800575F0087D007E98
:100DE600007F003392D530D503120EFCEC33401051
:100DF600EF33FFEE33FEED33FDEC33FCD5F0ED22A1
:0E0E0600E5F0247EA2D513CC92E7CDCEFF22DC
:100E1400EDD2E7CD33EC3392D524814006E4FFFED6
:100E2400FDFC22FCE4CFCECDCC24E0501174FF8035
:100E3400EDC3CC13CCCD13CDCE13CECF13CF0470D2
:070E4400F030D5DE020EFCC8
:100E4B00E9D2E7C933E833F892D5EDD2E7CD33ECED
:070E5B0033FC5002B2D52266
:100E6200EC30E7100FBF000C0EBE00080DBD0004F1
:100E72000BEB6014A2D5EB13FCED92E7FD2274FF9D
:100E8200FCFDFEFF22E480F8A2D574FF13FC7D80F6
:030E9200E480EF0A
:1018550002172CE493A3F8E493A34003F68001F266
:1018650008DFF48029E493A3F85407240CC8C33394
:10187500C4540F4420C8834004F456800146F6DF63
:10188500E4800B01020408102040809018D5E47E06
:10189500019360BCA3FF543F30E509541FFEE49358
:1018A500A360010ECF54C025E060A840B8E493A31F
:1018B500FAE493A3F8E493A3C8C582C8CAC583CA4A
:1018C500F0A3C8C582C8CAC583CADFE9DEE780BE02
:0119370000AF
:100E9500EF8DF0A4A8F0CF8CF0A428CE8DF0A42E71
:020EA500FE222B
:100EA700BC000BBE0029EF8DF084FFADF022E4CC2F
:100EB700F875F008EF2FFFEE33FEEC33FCEE9DECF8
:100EC700984005FCEE9DFE0FD5F0E9E4CEFD22ED3E
:100ED700F8F5F0EE8420D21CFEADF075F008EF2F88
:100EE700FFED33FD4007985006D5F0F222C398FD79
:050EF7000FD5F0EA2216
:0E0EFC00C3E49FFFE49EFEE49DFDE49CFC2207
:100F0A00EB9FF5F0EA9E42F0E99D42F0E89C45F03D
:010F1A0022B4
:00000001FF
