:03000000020026D5
:0C002600787FE4F6D8FD75813102006D92
:10019100010B00010C00010D00010E0010223F06B1
:1001A1005B4F666D7D077F6F77395E797100011353
:0901B10000C10E01150001080057
:10029900438E805389F0758A96758CFAD28CD2A9CF
:1002A900759850438E01438E0475D7E075D6FE4389
:0D02B9008E10D2ACD2AF75E10243E12022DD
:1002240012029943E11043E110120003300EF7C2A9
:100234000E0515E515B40A03E4F515E51524FB6070
:100244000D14600F24FD6010240870DA800512007C
:0D025400B280D312000E80CE12026180C96C
:03000B000201DD12
:1001DD00C0E0C0F0C083C082C0D075D000C000C0E8
:0D01ED0001C002C003C004C005C006C00769
:0F01FA000508E508B41005750800D20E1202C6FC
:10020900D007D006D005D004D003D002D001D00049
:0B021900D0D0D082D083D0F0D0E032F3
:03002300020300D5
:03030000C298326E
:0A000E00E4F50BF50CF50DF50E22DC
:100261000509050AE50AB40503E4F50AE509641977
:100271007025F509B20F300F1E050FE50FB43C17BD
:10028100E4F50F0510E510B43C0DE4F5100514E597
:0702910014B41803E4F51496
:010298002243
:05000300300A02C20AF0
:0100080022D5
:1002C600E4F51C209503751C01209603751C02207D
:1002D6009703751C0320CC03751C0420B203751C00
:0202E6000522EF
:1001BA00011B00011D00011700011900011C0001AB
:1001CA001600011800011A00C10BC10DC109C10CAA
:0201DA00C1085A
:1000B200E51B6002151BE51760021517E5196004C0
:1000C20015198008C208C209C20BC209E51B7002D9
:1000D200F516851C16E51665187024E5166045E5CB
:1000E20019701830080BD20CC208851618D20A8073
:1000F2000AD20B851618D20A751901751B3222E530
:10010200166021300910E5176009D20D851618D244
:100112000A800AC20D22851618D20AC20B751B323A
:0801220075190A228516182246
:09001800200905D20975176422C4
:1002E800200814D2087E007C037DE812012A7C00D5
:0802F8007D3212013C8F192236
:10003200020224E493A3F8E493A34003F68001F2BE
:1000420008DFF48029E493A3F85407240CC8C333CF
:10005200C4540F4420C8834004F456800146F6DF9E
:10006200E4800B0102040810204080900191E47E9C
:10007200019360BCA3FF543F30E509541FFEE49393
:10008200A360010ECF54C025E060A840B8E493A35A
:10009200FAE493A3F8E493A3C8C582C8CAC583CA85
:1000A200F0A3C8C582C8CAC583CADFE9DEE780BE3D
:0101DC000022
:10012A00EF8DF0A4A8F0CF8CF0A428CE8DF0A42EE9
:02013A00FE22A3
:10013C00BC000BBE0029EF8DF084FFADF022E4CCA7
:10014C00F875F008EF2FFFEE33FEEC33FCEE9DEC70
:10015C00984005FCEE9DFE0FD5F0E9E4CEFD22EDB6
:10016C00F8F5F0EE8420D21CFEADF075F008EF2F00
:10017C00FFED33FD4007985006D5F0F222C398FDF1
:05018C000FD5F0EA228E
:00000001FF
