:0300000002000EED
:0C000E00787FE4F6D8FD75815C02005597
:10016E00014D00C100012800012700014F00015080
:10017E0000C101012900014E00014800055840450B
:10018E00484A4F1E2AF1E00A000000F2E03C00004F
:10019E0000F4E06E000000F8E0A0000000FAE0D2EB
:1001AE0000000001210001220001230001250001B1
:0201BE00260019
:10033D00438E80E4F589758A9A758CFAD28CD2A990
:10034D00438E04538EF775D77075D6FF438E107597
:05035D008F04D2AF2265
:1002EB0012033D1203A91202BE3000FAC200052808
:1002FB00E528B40A03E4F528E52824F76009240966
:0C030B0070E412011480DF12031780DA86
:03000B000201C12E
:1001C100C0E0C0F0C083C082C0D075D000C000C004
:0D01D10001C002C003C004C005C006C00785
:1001DE0005210522E522B41005752200D200120376
:0101EE00818F
:1001EF00D007D006D005D004D003D002D001D00064
:0B01FF00D0D0D082D083D0F0D0E0320E
:1003170005230525E525B40503E4F525E52575F051
:1003270006A4242AF9E4FAFB12020AE523B43205EB
:05033700E4F523B2957E
:01033C00229E
:1002BE00E54E6028FFE4F54EEF24FD6002801DB28E
:1002CE0095E526B40503E4F526E52675F006A42487
:0C02DE002CF830950576FF0526227605E9
:0102EA0022F1
:10011400AF4F054FEFC39402400BE4F548C201F51D
:100124004FF529F550E5296040E4F54FE529654888
:10013400702A055020010DE550C39432E44002803A
:100144000BF52922E550C39419E4400DF550D20172
:10015400AF298F4E8F48F52922F52922AF298F4EDA
:0A0164008F48E4F529C201F550228E
:10038100E4F52920CC0375290120A0037529022059
:0C039100A40375290420CD037529032264
:06036200EF1200F2E4FFBF
:10036800E4FEEF3392A2D2A3EF25E0FFA2A1E4338B
:080378004207C2A30EBE08EA11
:01038000225A
:10024D00E4FF120276E4FD7F011202760D7F0212A9
:10025D0002761D7F041202767D407F051202767DA7
:09026D00077F061202761D7F11C5
:10027600C2A4EF2420FF120368AF05120368D2A4BC
:010286002255
:10028700C2A47F61120368E4FF120368EF1200E063
:10029700E4FF120368900001120362900002120348
:1002A700629000031203629000041203629000053B
:0702B700EF1200F2D2A422B5
:10020A00C2A47FA012036812009AFF12036890002A
:10021A00011200B3FF1203689000021200B3FF122A
:10022A0003689000031200B3FF12036890000412DF
:10023A0000B3FF1203689000051200B3FF120368AF
:03024A00D2A42219
:0C039D00C2A5C2A37D7B12024DD2A52296
:0C03A900C2A5C2A37D0A12024DD2A522FB
:10001A000202EBE493A3F8E493A34003F68001F20F
:10002A0008DFF48029E493A3F85407240CC8C333E7
:10003A00C4540F4420C8834004F456800146F6DFB6
:10004A00E4800B010204081020408090016EE47ED7
:10005A00019360BCA3FF543F30E509541FFEE493AB
:10006A00A360010ECF54C025E060A840B8E493A372
:10007A00FAE493A3F8E493A3C8C582C8CAC583CA9D
:10008A00F0A3C8C582C8CAC583CADFE9DEE780BE55
:0101C000003E
:10009A00BB010689828A83E0225002E722BBFE0264
:0900AA00E32289828A83E4932297
:1000B300BB010CE58229F582E5833AF583E0225002
:1000C30006E92582F8E622BBFE06E92582F8E2224C
:0D00D300E58229F582E5833AF583E4932266
:1000E000BB010689828A83F0225002F722BBFE01FF
:0200F000F322F9
:1000F200F8BB010DE58229F582E5833AF583E8F044
:10010200225006E92582C8F622BBFE05E92582C8EF
:02011200F222D7
:00000001FF
