:03000000020329CF
:0C032900787FE4F6D8FD7581680203704F
:0B057A00011300C11A01150001080068
:1005C90008F608F608F608F608F608F608F608F632
:0E05D90022E726082608260826786226F62243
:1000260012041C7591007592FF53953B4396C45379
:10003600C9CF43CA30E4FFFE12068C7F0112010CC1
:100046007F02FE12000E7F0312010C7F04FE1200D7
:100056000E7F051201157F06FE12000E7F071201A4
:10006600157F08FE12000E7F0912011E7F0AFE127E
:10007600000E7F0B12011E7F0CFE12000E7F0D126A
:1000860001277F0EFE12000E7F0F1201277F10122E
:1000960001307F111201307F12FE12000EE4FD7F47
:1000A60013FE12000E7D55E4FFFE12000EC21C4325
:1000B600E11043E1101206021204FF12061C12059B
:1000C600A91205E7301AEBC21A0515E515B40A039D
:1000D600E4F515E51524FE601424FD60151460177B
:1000E60024FE601814601A240870C7800A1201E200
:1000F60080C012013780BB12000780B612061C8032
:10010600B112054280ACE4FDFE12000EE4FD22E4CD
:10011600FDFE12000EE4FD22E4FDFE12000EE4FDDB
:1001260022E4FDFE12000EE4FD22FE12000EE4FDA6
:0101360022A6
:03000B000204B834
:1004B800C0E0C0F0C083C082C0D075D000C000C00A
:0D04C80001C002C003C004C005C006C0078B
:0F04D5000508E508B41005750800D21A12065084
:1004E400D007D006D005D004D003D002D001D0006C
:0B04F400D0D0D082D083D0F0D0E03216
:0300230002028B4B
:10028B00C0E0C0D075D000C000C004C005C006C01F
:01029B00075B
:10029C00E4FDFC309854201D14AE99C298EEF47015
:1002AC006D0509E50964027065D21D8061AE99C2C5
:1002BC00987F00EFC39E502920980E0DBD00010CB5
:1002CC00D3ED94C8EC940040EFC3ED94C8EC9400CB
:1002DC00500F742D2FF8A699C2987C007D000F80CA
:1002EC00D2C29CC21D750900802420982130991E11
:1002FC00C299784DE6FE7F00EFC39E500F744B2FD2
:0E030C00F8E6F5993099FDC2990F80ECD29C6D
:0F031A00D007D006D005D004D000D0D0D0E0322C
:03000300020006F2
:0100060032C7
:0100070022D6
:10054200050A050BE50BB40503E4F50BE50A64198E
:100552007025F50AB21B301B1E050CE50CB43C17C6
:10056200E4F50C050EE50EB43C0DE4F50E0514E5BC
:0705720014B41803E4F514B2
:01057900225F
:10046C00784B76FF0876FF087618E408F6087607CE
:10047C000876021205C908F61205C9794BE7784CC3
:10048C00260826082608267962F779507851120535
:10049C00DA795578561205DA795AE7785B1205DB6A
:0C04AC00795FE778602608260826F62213
:10060200782EE6FF6013EF540F24F9600280031284
:0A061200046CD299D21F1206662272
:10066600E4FF301F04742D8002744B2FF8E4F60F5C
:03067600BF06EFCD
:01067900225E
:1004FF0030133FC213751203AF26EF24FE6017248B
:10050F00FD60252404702B7F02120636201605D2BB
:10051F001130191E800D7F02120636201605D211DA
:10052F0030190FC216C219227F0212063630160278
:02053F00C216E2
:010541002297
:10065000E4F52B20B003752B0120A103752B02209C
:06066000B103752B052219
:10061C00300803750D01300903750D02300A03759E
:0A062C000D03E50D600375170222AF
:1005A900E50D24FE600C14600E2402701220080F61
:1005B900800820090A8003200A05E4F517F50D22B1
:1005E700300204D2B58002C2B5300304D2B480020F
:0B05F700C2B4300403D2B322C2B3220E
:10041C00E4F594F593F592F591F596F595F5B2F51D
:10042C00B1F5B4F5B3F5CAF5C9F5CCF5CB438E806F
:10043C005389F0758ACD758CEFD28CD2A9759850F2
:10044C00438E01438E0475D7EE75D6FF438E10D2C2
:10045C00ACD2B2D288D2A8D2AF75E10243E120224D
:1001E200301C7AE4FFFE12068C7F011202607F024D
:1001F200FE12000E7F031202607F04FE12000E7FC9
:10020200051202697F06FE12000E7F071202697F45
:1002120008FE12000E7F091202727F0AFE12000E01
:100222007F0B1202727F0CFE12000E7F0D12027BF8
:100232007F0EFE12000E7F0F12027B7F10120284CD
:100242007F111202847F12FE12000EE4FD7F13FE64
:1002520012000E7D55E4FFFE12000EC21C22E4FDC8
:10026200FE12000EE4FD22E4FDFE12000EE4FD2269
:10027200E4FDFE12000EE4FD22E4FDFE12000EE497
:09028200FD22FE12000EE4FD2233
:0B06A8008FC48EC375C65A75C6A5220C
:0D069B00E4F5C7F5C5F5C675C380F5C422AA
:10067A0075C78475C5011206A8000000AFC212062C
:01068A009BD4
:01068B00224C
:10000E0075C78475C5028FC48EC38DC21206AC002F
:05001E00000002069B3A
:0F068C0075C78475C5031206A800000002069BFF
:10058500012A00012C0001250002270000012B0093
:10059500012400012600012900C114C117C112C19F
:0305A50016C1106C
:10013700E52A6002152AE52560021525E5284527E9
:10014700600AE5281528700C15278008C210C2120E
:10015700C214C212E52A7006F524C210C214852BF8
:1001670024E52465267030E5246029D215E5284565
:1001770027701D30100DD216C210C211852426D249
:1001870013800DD214852426D213752700752801F4
:10019700752A3222C21022C210E524602AD215C263
:1001A70019C211301210E5256009D217852426D20D
:1001B70013800AC21722852426D213C214752A3245
:1001C70075270075280A2230110B30150BD219C27A
:0B01D70011D2138003852426C21522DC
:0906B300201205D2127525642203
:10063600201016D2107E007C037DE81203B57C00E4
:0A0646007D141203C78E278F2822AF
:10033500020026E493A3F8E493A34003F68001F2B8
:1003450008DFF48029E493A3F85407240CC8C333C9
:10035500C4540F4420C8834004F456800146F6DF98
:10036500E4800B010204081020408090057AE47EA9
:10037500019360BCA3FF543F30E509541FFEE4938D
:10038500A360010ECF54C025E060A840B8E493A354
:10039500FAE493A3F8E493A3C8C582C8CAC583CA7F
:1003A500F0A3C8C582C8CAC583CADFE9DEE780BE37
:0105A8000052
:1003B500EF8DF0A4A8F0CF8CF0A428CE8DF0A42E5C
:0203C500FE2216
:1003C700BC000BBE0029EF8DF084FFADF022E4CC1A
:1003D700F875F008EF2FFFEE33FEEC33FCEE9DECE3
:1003E700984005FCEE9DFE0FD5F0E9E4CEFD22ED29
:1003F700F8F5F0EE8420D21CFEADF075F008EF2F73
:10040700FFED33FD4007985006D5F0F222C398FD63
:050417000FD5F0EA2200
:00000001FF
