:030000000200BA41
:0C00BA00787FE4F6D8FD75813102010169
:1001AD00010B00010C00010D00010E0010223F0695
:1001BD005B4F666D7D077F6F77395E797100011337
:0901CD0000C10E0115000108003B
:10028D001201FA43E11043E110120003300EF7C2E0
:10029D000E0515E515B40A03E4F515E51524FB6007
:1002AD000D14600F24FD6010240870DA8005120013
:0D02BD002680D312033E80CE1202CA80C9F3
:03000B00020246A8
:10024600C0E0C0F0C083C082C0D075D000C000C07E
:0D02560001C002C003C004C005C006C007FF
:0F0263000508E508B41005750800D20E12030255
:10027200D007D006D005D004D003D002D001D000E0
:0B028200D0D0D082D083D0F0D0E0328A
:0300230002000ECA
:10000E00C0E0C0D0E599B47F0375C760D0D0D0E012
:01001E0032AF
:0A033E00E4F50BF50CF50DF50E22A9
:1002CA000509050AE50AB40503E4F50AE50964190E
:1002DA007025F509B20F300F1E050FE50FB43C1754
:1002EA00E4F50F0510E510B43C0DE4F5100514E52E
:0702FA0014B41803E4F5142D
:0103010022D9
:05000300300A02C20AF0
:0100080022D5
:10030200E4F51D209503751D01209603751D02203D
:100312009703751D0320CC03751D0420B203751DC0
:020322000522B2
:1001FA00E4F594F593F592F591F596F59575B20AAD
:10020A0075B108F5B4F5B3F5CAF5C9F5CCF5CB4324
:10021A008E805389F0758A96758CFAD28CD2A9751C
:10022A009850438E01438E0475D7E075D6FE438EEF
:0C023A0010D2ACD2AF75E10243E12022EB
:1001D600011C00011E0001170002190000011D008C
:1001E600011600011800011B00C10BC10DC109C198
:0301F6000CC10831
:10002600E51C6002151CE51760021517E51A45194F
:10003600600AE51A151A700C15198008C208C2095B
:10004600C20BC209E51C7006F516C208C20B851D57
:1000560016E5166518702FE5166025E51A45197020
:100066001B30080BD20CC208851618D20A800DD296
:100076000B851618D20A751900751A01751C3222DD
:10008600851618C20822C208E5166024300910E554
:10009600176009D20D851618D20A800AC20D22856C
:1000A6001618D20AC20B751C32751900751A0A2267
:0400B6008516182271
:09034800200905D2097517642291
:10032400200816D2087E007C037DE81201467C007A
:0A0334007D141201588E198F1A2251
:1000C60002028DE493A3F8E493A34003F68001F2C1
:1000D60008DFF48029E493A3F85407240CC8C3333B
:1000E600C4540F4420C8834004F456800146F6DF0A
:1000F600E4800B01020408102040809001ADE47EEC
:10010600019360BCA3FF543F30E509541FFEE493FE
:10011600A360010ECF54C025E060A840B8E493A3C5
:10012600FAE493A3F8E493A3C8C582C8CAC583CAF0
:10013600F0A3C8C582C8CAC583CADFE9DEE780BEA8
:0101F9000005
:10014600EF8DF0A4A8F0CF8CF0A428CE8DF0A42ECD
:02015600FE2287
:10015800BC000BBE0029EF8DF084FFADF022E4CC8B
:10016800F875F008EF2FFFEE33FEEC33FCEE9DEC54
:10017800984005FCEE9DFE0FD5F0E9E4CEFD22ED9A
:10018800F8F5F0EE8420D21CFEADF075F008EF2FE4
:10019800FFED33FD4007985006D5F0F222C398FDD5
:0501A8000FD5F0EA2272
:00000001FF
